{
  "_format": "hh-sol-artifact-1",
  "contractName": "OceanToken",
  "sourceName": "contracts/OceanToken.sol",
  "abi": [
    {
      "inputs": [
        {
          "internalType": "uint256",
          "name": "cap",
          "type": "uint256"
        },
        {
          "internalType": "uint256",
          "name": "reward",
          "type": "uint256"
        }
      ],
      "stateMutability": "nonpayable",
      "type": "constructor"
    },
    {
      "inputs": [
        {
          "internalType": "address",
          "name": "caller",
          "type": "address"
        },
        {
          "internalType": "address",
          "name": "owner",
          "type": "address"
        }
      ],
      "name": "OceanToken__NotOwner",
      "type": "error"
    },
    {
      "anonymous": false,
      "inputs": [
        {
          "indexed": true,
          "internalType": "address",
          "name": "owner",
          "type": "address"
        },
        {
          "indexed": true,
          "internalType": "address",
          "name": "spender",
          "type": "address"
        },
        {
          "indexed": false,
          "internalType": "uint256",
          "name": "value",
          "type": "uint256"
        }
      ],
      "name": "Approval",
      "type": "event"
    },
    {
      "anonymous": false,
      "inputs": [
        {
          "indexed": true,
          "internalType": "address",
          "name": "from",
          "type": "address"
        },
        {
          "indexed": true,
          "internalType": "address",
          "name": "to",
          "type": "address"
        },
        {
          "indexed": false,
          "internalType": "uint256",
          "name": "value",
          "type": "uint256"
        }
      ],
      "name": "Transfer",
      "type": "event"
    },
    {
      "inputs": [
        {
          "internalType": "address",
          "name": "owner",
          "type": "address"
        },
        {
          "internalType": "address",
          "name": "spender",
          "type": "address"
        }
      ],
      "name": "allowance",
      "outputs": [
        {
          "internalType": "uint256",
          "name": "",
          "type": "uint256"
        }
      ],
      "stateMutability": "view",
      "type": "function"
    },
    {
      "inputs": [
        {
          "internalType": "address",
          "name": "spender",
          "type": "address"
        },
        {
          "internalType": "uint256",
          "name": "amount",
          "type": "uint256"
        }
      ],
      "name": "approve",
      "outputs": [
        {
          "internalType": "bool",
          "name": "",
          "type": "bool"
        }
      ],
      "stateMutability": "nonpayable",
      "type": "function"
    },
    {
      "inputs": [
        {
          "internalType": "address",
          "name": "account",
          "type": "address"
        }
      ],
      "name": "balanceOf",
      "outputs": [
        {
          "internalType": "uint256",
          "name": "",
          "type": "uint256"
        }
      ],
      "stateMutability": "view",
      "type": "function"
    },
    {
      "inputs": [
        {
          "internalType": "uint256",
          "name": "amount",
          "type": "uint256"
        }
      ],
      "name": "burn",
      "outputs": [],
      "stateMutability": "nonpayable",
      "type": "function"
    },
    {
      "inputs": [
        {
          "internalType": "address",
          "name": "account",
          "type": "address"
        },
        {
          "internalType": "uint256",
          "name": "amount",
          "type": "uint256"
        }
      ],
      "name": "burnFrom",
      "outputs": [],
      "stateMutability": "nonpayable",
      "type": "function"
    },
    {
      "inputs": [],
      "name": "cap",
      "outputs": [
        {
          "internalType": "uint256",
          "name": "",
          "type": "uint256"
        }
      ],
      "stateMutability": "view",
      "type": "function"
    },
    {
      "inputs": [],
      "name": "decimals",
      "outputs": [
        {
          "internalType": "uint8",
          "name": "",
          "type": "uint8"
        }
      ],
      "stateMutability": "view",
      "type": "function"
    },
    {
      "inputs": [
        {
          "internalType": "address",
          "name": "spender",
          "type": "address"
        },
        {
          "internalType": "uint256",
          "name": "subtractedValue",
          "type": "uint256"
        }
      ],
      "name": "decreaseAllowance",
      "outputs": [
        {
          "internalType": "bool",
          "name": "",
          "type": "bool"
        }
      ],
      "stateMutability": "nonpayable",
      "type": "function"
    },
    {
      "inputs": [],
      "name": "destroy",
      "outputs": [],
      "stateMutability": "nonpayable",
      "type": "function"
    },
    {
      "inputs": [
        {
          "internalType": "address",
          "name": "minerAddress",
          "type": "address"
        }
      ],
      "name": "getBlockMinerTokens",
      "outputs": [
        {
          "internalType": "uint256",
          "name": "",
          "type": "uint256"
        }
      ],
      "stateMutability": "view",
      "type": "function"
    },
    {
      "inputs": [],
      "name": "getBlockMiners",
      "outputs": [
        {
          "internalType": "address[]",
          "name": "",
          "type": "address[]"
        }
      ],
      "stateMutability": "view",
      "type": "function"
    },
    {
      "inputs": [],
      "name": "getOwner",
      "outputs": [
        {
          "internalType": "address",
          "name": "",
          "type": "address"
        }
      ],
      "stateMutability": "view",
      "type": "function"
    },
    {
      "inputs": [],
      "name": "i_owner",
      "outputs": [
        {
          "internalType": "address payable",
          "name": "",
          "type": "address"
        }
      ],
      "stateMutability": "view",
      "type": "function"
    },
    {
      "inputs": [
        {
          "internalType": "address",
          "name": "spender",
          "type": "address"
        },
        {
          "internalType": "uint256",
          "name": "addedValue",
          "type": "uint256"
        }
      ],
      "name": "increaseAllowance",
      "outputs": [
        {
          "internalType": "bool",
          "name": "",
          "type": "bool"
        }
      ],
      "stateMutability": "nonpayable",
      "type": "function"
    },
    {
      "inputs": [],
      "name": "name",
      "outputs": [
        {
          "internalType": "string",
          "name": "",
          "type": "string"
        }
      ],
      "stateMutability": "view",
      "type": "function"
    },
    {
      "inputs": [
        {
          "internalType": "address",
          "name": "",
          "type": "address"
        }
      ],
      "name": "s_addressToTokenAmount",
      "outputs": [
        {
          "internalType": "uint256",
          "name": "",
          "type": "uint256"
        }
      ],
      "stateMutability": "view",
      "type": "function"
    },
    {
      "inputs": [
        {
          "internalType": "uint256",
          "name": "",
          "type": "uint256"
        }
      ],
      "name": "s_blockMiners",
      "outputs": [
        {
          "internalType": "address",
          "name": "",
          "type": "address"
        }
      ],
      "stateMutability": "view",
      "type": "function"
    },
    {
      "inputs": [],
      "name": "s_blockReward",
      "outputs": [
        {
          "internalType": "uint256",
          "name": "",
          "type": "uint256"
        }
      ],
      "stateMutability": "view",
      "type": "function"
    },
    {
      "inputs": [
        {
          "internalType": "uint256",
          "name": "reward",
          "type": "uint256"
        }
      ],
      "name": "setBlockReward",
      "outputs": [],
      "stateMutability": "nonpayable",
      "type": "function"
    },
    {
      "inputs": [],
      "name": "symbol",
      "outputs": [
        {
          "internalType": "string",
          "name": "",
          "type": "string"
        }
      ],
      "stateMutability": "view",
      "type": "function"
    },
    {
      "inputs": [],
      "name": "totalSupply",
      "outputs": [
        {
          "internalType": "uint256",
          "name": "",
          "type": "uint256"
        }
      ],
      "stateMutability": "view",
      "type": "function"
    },
    {
      "inputs": [
        {
          "internalType": "address",
          "name": "to",
          "type": "address"
        },
        {
          "internalType": "uint256",
          "name": "amount",
          "type": "uint256"
        }
      ],
      "name": "transfer",
      "outputs": [
        {
          "internalType": "bool",
          "name": "",
          "type": "bool"
        }
      ],
      "stateMutability": "nonpayable",
      "type": "function"
    },
    {
      "inputs": [
        {
          "internalType": "address",
          "name": "from",
          "type": "address"
        },
        {
          "internalType": "address",
          "name": "to",
          "type": "address"
        },
        {
          "internalType": "uint256",
          "name": "amount",
          "type": "uint256"
        }
      ],
      "name": "transferFrom",
      "outputs": [
        {
          "internalType": "bool",
          "name": "",
          "type": "bool"
        }
      ],
      "stateMutability": "nonpayable",
      "type": "function"
    }
  ],
  "bytecode": "0x60c06040523480156200001157600080fd5b50604051620031aa380380620031aa833981810160405281019062000037919062000691565b62000047620001f060201b60201c565b600a62000055919062000868565b82620000629190620008b9565b6040518060400160405280600a81526020017f4f6365616e546f6b656e000000000000000000000000000000000000000000008152506040518060400160405280600381526020017f4f435400000000000000000000000000000000000000000000000000000000008152508160039081620000df919062000b74565b508060049081620000f1919062000b74565b505050600081116200013a576040517f08c379a0000000000000000000000000000000000000000000000000000000008152600401620001319062000cbc565b60405180910390fd5b8060808181525050503373ffffffffffffffffffffffffffffffffffffffff1660a08173ffffffffffffffffffffffffffffffffffffffff1681525050620001b760a0516200018e620001f060201b60201c565b600a6200019c919062000868565b61c350620001ab9190620008b9565b620001f960201b60201c565b620001c7620001f060201b60201c565b600a620001d5919062000868565b81620001e29190620008b9565b600581905550505062000e2b565b60006012905090565b620002096200028a60201b60201c565b816200021f6200029460201b620005921760201c565b6200022b919062000cde565b11156200026f576040517f08c379a0000000000000000000000000000000000000000000000000000000008152600401620002669062000d69565b60405180910390fd5b6200028682826200029e60201b62000b681760201c565b5050565b6000608051905090565b6000600254905090565b620002ae6200028a60201b60201c565b81620002c46200029460201b620005921760201c565b620002d0919062000cde565b111562000314576040517f08c379a00000000000000000000000000000000000000000000000000000000081526004016200030b9062000d69565b60405180910390fd5b6200032b82826200032f60201b62000bd21760201c565b5050565b600073ffffffffffffffffffffffffffffffffffffffff168273ffffffffffffffffffffffffffffffffffffffff1603620003a1576040517f08c379a0000000000000000000000000000000000000000000000000000000008152600401620003989062000ddb565b60405180910390fd5b620003b5600083836200049c60201b60201c565b8060026000828254620003c9919062000cde565b92505081905550806000808473ffffffffffffffffffffffffffffffffffffffff1673ffffffffffffffffffffffffffffffffffffffff168152602001908152602001600020600082825401925050819055508173ffffffffffffffffffffffffffffffffffffffff16600073ffffffffffffffffffffffffffffffffffffffff167fddf252ad1be2c89b69c2b068fc378daa952ba7f163c4a11628f55a4df523b3ef836040516200047c919062000e0e565b60405180910390a362000498600083836200057460201b60201c565b5050565b600073ffffffffffffffffffffffffffffffffffffffff168373ffffffffffffffffffffffffffffffffffffffff16141580156200050657504173ffffffffffffffffffffffffffffffffffffffff168273ffffffffffffffffffffffffffffffffffffffff1614155b8015620005405750600073ffffffffffffffffffffffffffffffffffffffff164173ffffffffffffffffffffffffffffffffffffffff1614155b156200055757620005566200057960201b60201c565b5b6200056f8383836200064c60201b62000d281760201c565b505050565b505050565b6200058d41600554620001f960201b60201c565b6006419080600181540180825580915050600190039060005260206000200160009091909190916101000a81548173ffffffffffffffffffffffffffffffffffffffff021916908373ffffffffffffffffffffffffffffffffffffffff160217905550600554600760004173ffffffffffffffffffffffffffffffffffffffff1673ffffffffffffffffffffffffffffffffffffffff168152602001908152602001600020600082825462000643919062000cde565b92505081905550565b505050565b600080fd5b6000819050919050565b6200066b8162000656565b81146200067757600080fd5b50565b6000815190506200068b8162000660565b92915050565b60008060408385031215620006ab57620006aa62000651565b5b6000620006bb858286016200067a565b9250506020620006ce858286016200067a565b9150509250929050565b7f4e487b7100000000000000000000000000000000000000000000000000000000600052601160045260246000fd5b60008160011c9050919050565b6000808291508390505b600185111562000766578086048111156200073e576200073d620006d8565b5b60018516156200074e5780820291505b80810290506200075e8562000707565b94506200071e565b94509492505050565b60008262000781576001905062000854565b8162000791576000905062000854565b8160018114620007aa5760028114620007b557620007eb565b600191505062000854565b60ff841115620007ca57620007c9620006d8565b5b8360020a915084821115620007e457620007e3620006d8565b5b5062000854565b5060208310610133831016604e8410600b8410161715620008255782820a9050838111156200081f576200081e620006d8565b5b62000854565b62000834848484600162000714565b925090508184048111156200084e576200084d620006d8565b5b81810290505b9392505050565b600060ff82169050919050565b6000620008758262000656565b915062000882836200085b565b9250620008b17fffffffffffffffffffffffffffffffffffffffffffffffffffffffffffffffff84846200076f565b905092915050565b6000620008c68262000656565b9150620008d38362000656565b9250828202620008e38162000656565b91508282048414831517620008fd57620008fc620006d8565b5b5092915050565b600081519050919050565b7f4e487b7100000000000000000000000000000000000000000000000000000000600052604160045260246000fd5b7f4e487b7100000000000000000000000000000000000000000000000000000000600052602260045260246000fd5b600060028204905060018216806200098657607f821691505b6020821081036200099c576200099b6200093e565b5b50919050565b60008190508160005260206000209050919050565b60006020601f8301049050919050565b600082821b905092915050565b60006008830262000a067fffffffffffffffffffffffffffffffffffffffffffffffffffffffffffffffff82620009c7565b62000a128683620009c7565b95508019841693508086168417925050509392505050565b6000819050919050565b600062000a5562000a4f62000a498462000656565b62000a2a565b62000656565b9050919050565b6000819050919050565b62000a718362000a34565b62000a8962000a808262000a5c565b848454620009d4565b825550505050565b600090565b62000aa062000a91565b62000aad81848462000a66565b505050565b5b8181101562000ad55762000ac960008262000a96565b60018101905062000ab3565b5050565b601f82111562000b245762000aee81620009a2565b62000af984620009b7565b8101602085101562000b09578190505b62000b2162000b1885620009b7565b83018262000ab2565b50505b505050565b600082821c905092915050565b600062000b496000198460080262000b29565b1980831691505092915050565b600062000b64838362000b36565b9150826002028217905092915050565b62000b7f8262000904565b67ffffffffffffffff81111562000b9b5762000b9a6200090f565b5b62000ba782546200096d565b62000bb482828562000ad9565b600060209050601f83116001811462000bec576000841562000bd7578287015190505b62000be3858262000b56565b86555062000c53565b601f19841662000bfc86620009a2565b60005b8281101562000c265784890151825560018201915060208501945060208101905062000bff565b8683101562000c46578489015162000c42601f89168262000b36565b8355505b6001600288020188555050505b505050505050565b600082825260208201905092915050565b7f45524332304361707065643a2063617020697320300000000000000000000000600082015250565b600062000ca460158362000c5b565b915062000cb18262000c6c565b602082019050919050565b6000602082019050818103600083015262000cd78162000c95565b9050919050565b600062000ceb8262000656565b915062000cf88362000656565b925082820190508082111562000d135762000d12620006d8565b5b92915050565b7f45524332304361707065643a2063617020657863656564656400000000000000600082015250565b600062000d5160198362000c5b565b915062000d5e8262000d19565b602082019050919050565b6000602082019050818103600083015262000d848162000d42565b9050919050565b7f45524332303a206d696e7420746f20746865207a65726f206164647265737300600082015250565b600062000dc3601f8362000c5b565b915062000dd08262000d8b565b602082019050919050565b6000602082019050818103600083015262000df68162000db4565b9050919050565b62000e088162000656565b82525050565b600060208201905062000e25600083018462000dfd565b92915050565b60805160a05161232f62000e7b6000396000818161059e015281816105f2015281816108370152818161088b015281816108e9015281816109240152610abf015260006106b2015261232f6000f3fe608060405234801561001057600080fd5b506004361061014d5760003560e01c80635ab4be12116100c357806395d89b411161007c57806395d89b41146103a2578063a457c2d7146103c0578063a9059cbb146103f0578063bf4bf08d14610420578063dba6335f14610450578063dd62ed3e1461046e5761014d565b80635ab4be12146102e057806370a08231146102fe57806379cc67901461032e57806382efb0dc1461034a57806383197ef01461037a578063893d20e8146103845761014d565b806323b872dd1161011557806323b872dd1461020a578063313ce5671461023a578063355274ea146102585780633950935114610276578063413e4e65146102a657806342966c68146102c45761014d565b8063063f21c81461015257806306fdde0314610182578063095ea7b3146101a057806318160ddd146101d05780631a18e707146101ee575b600080fd5b61016c60048036038101906101679190611600565b61049e565b604051610179919061166e565b60405180910390f35b61018a6104dd565b6040516101979190611719565b60405180910390f35b6101ba60048036038101906101b59190611767565b61056f565b6040516101c791906117c2565b60405180910390f35b6101d8610592565b6040516101e591906117ec565b60405180910390f35b61020860048036038101906102039190611600565b61059c565b005b610224600480360381019061021f9190611807565b610676565b60405161023191906117c2565b60405180910390f35b6102426106a5565b60405161024f9190611876565b60405180910390f35b6102606106ae565b60405161026d91906117ec565b60405180910390f35b610290600480360381019061028b9190611767565b6106d6565b60405161029d91906117c2565b60405180910390f35b6102ae61070d565b6040516102bb91906117ec565b60405180910390f35b6102de60048036038101906102d99190611600565b610713565b005b6102e8610727565b6040516102f5919061194f565b60405180910390f35b61031860048036038101906103139190611971565b6107b5565b60405161032591906117ec565b60405180910390f35b61034860048036038101906103439190611767565b6107fd565b005b610364600480360381019061035f9190611971565b61081d565b60405161037191906117ec565b60405180910390f35b610382610835565b005b61038c610920565b604051610399919061166e565b60405180910390f35b6103aa610948565b6040516103b79190611719565b60405180910390f35b6103da60048036038101906103d59190611767565b6109da565b6040516103e791906117c2565b60405180910390f35b61040a60048036038101906104059190611767565b610a51565b60405161041791906117c2565b60405180910390f35b61043a60048036038101906104359190611971565b610a74565b60405161044791906117ec565b60405180910390f35b610458610abd565b60405161046591906119bf565b60405180910390f35b610488600480360381019061048391906119da565b610ae1565b60405161049591906117ec565b60405180910390f35b600681815481106104ae57600080fd5b906000526020600020016000915054906101000a900473ffffffffffffffffffffffffffffffffffffffff1681565b6060600380546104ec90611a49565b80601f016020809104026020016040519081016040528092919081815260200182805461051890611a49565b80156105655780601f1061053a57610100808354040283529160200191610565565b820191906000526020600020905b81548152906001019060200180831161054857829003601f168201915b5050505050905090565b60008061057a610d2d565b9050610587818585610d35565b600191505092915050565b6000600254905090565b7f000000000000000000000000000000000000000000000000000000000000000073ffffffffffffffffffffffffffffffffffffffff163373ffffffffffffffffffffffffffffffffffffffff161461064e57337f00000000000000000000000000000000000000000000000000000000000000006040517fc7300a03000000000000000000000000000000000000000000000000000000008152600401610645929190611ad9565b60405180910390fd5b6106566106a5565b600a6106629190611c64565b8161066d9190611caf565b60058190555050565b600080610681610d2d565b905061068e858285610efe565b610699858585610f8a565b60019150509392505050565b60006012905090565b60007f0000000000000000000000000000000000000000000000000000000000000000905090565b6000806106e1610d2d565b90506107028185856106f38589610ae1565b6106fd9190611cf1565b610d35565b600191505092915050565b60055481565b61072461071e610d2d565b82611200565b50565b606060068054806020026020016040519081016040528092919081815260200182805480156107ab57602002820191906000526020600020905b8160009054906101000a900473ffffffffffffffffffffffffffffffffffffffff1673ffffffffffffffffffffffffffffffffffffffff1681526020019060010190808311610761575b5050505050905090565b60008060008373ffffffffffffffffffffffffffffffffffffffff1673ffffffffffffffffffffffffffffffffffffffff168152602001908152602001600020549050919050565b61080f82610809610d2d565b83610efe565b6108198282611200565b5050565b60076020528060005260406000206000915090505481565b7f000000000000000000000000000000000000000000000000000000000000000073ffffffffffffffffffffffffffffffffffffffff163373ffffffffffffffffffffffffffffffffffffffff16146108e757337f00000000000000000000000000000000000000000000000000000000000000006040517fc7300a030000000000000000000000000000000000000000000000000000000081526004016108de929190611ad9565b60405180910390fd5b7f000000000000000000000000000000000000000000000000000000000000000073ffffffffffffffffffffffffffffffffffffffff16ff5b60007f0000000000000000000000000000000000000000000000000000000000000000905090565b60606004805461095790611a49565b80601f016020809104026020016040519081016040528092919081815260200182805461098390611a49565b80156109d05780601f106109a5576101008083540402835291602001916109d0565b820191906000526020600020905b8154815290600101906020018083116109b357829003601f168201915b5050505050905090565b6000806109e5610d2d565b905060006109f38286610ae1565b905083811015610a38576040517f08c379a0000000000000000000000000000000000000000000000000000000008152600401610a2f90611d97565b60405180910390fd5b610a458286868403610d35565b60019250505092915050565b600080610a5c610d2d565b9050610a69818585610f8a565b600191505092915050565b6000600760008373ffffffffffffffffffffffffffffffffffffffff1673ffffffffffffffffffffffffffffffffffffffff168152602001908152602001600020549050919050565b7f000000000000000000000000000000000000000000000000000000000000000081565b6000600160008473ffffffffffffffffffffffffffffffffffffffff1673ffffffffffffffffffffffffffffffffffffffff16815260200190815260200160002060008373ffffffffffffffffffffffffffffffffffffffff1673ffffffffffffffffffffffffffffffffffffffff16815260200190815260200160002054905092915050565b610b706106ae565b81610b79610592565b610b839190611cf1565b1115610bc4576040517f08c379a0000000000000000000000000000000000000000000000000000000008152600401610bbb90611e03565b60405180910390fd5b610bce8282610bd2565b5050565b600073ffffffffffffffffffffffffffffffffffffffff168273ffffffffffffffffffffffffffffffffffffffff1603610c41576040517f08c379a0000000000000000000000000000000000000000000000000000000008152600401610c3890611e6f565b60405180910390fd5b610c4d600083836113cd565b8060026000828254610c5f9190611cf1565b92505081905550806000808473ffffffffffffffffffffffffffffffffffffffff1673ffffffffffffffffffffffffffffffffffffffff168152602001908152602001600020600082825401925050819055508173ffffffffffffffffffffffffffffffffffffffff16600073ffffffffffffffffffffffffffffffffffffffff167fddf252ad1be2c89b69c2b068fc378daa952ba7f163c4a11628f55a4df523b3ef83604051610d1091906117ec565b60405180910390a3610d246000838361148d565b5050565b505050565b600033905090565b600073ffffffffffffffffffffffffffffffffffffffff168373ffffffffffffffffffffffffffffffffffffffff1603610da4576040517f08c379a0000000000000000000000000000000000000000000000000000000008152600401610d9b90611f01565b60405180910390fd5b600073ffffffffffffffffffffffffffffffffffffffff168273ffffffffffffffffffffffffffffffffffffffff1603610e13576040517f08c379a0000000000000000000000000000000000000000000000000000000008152600401610e0a90611f93565b60405180910390fd5b80600160008573ffffffffffffffffffffffffffffffffffffffff1673ffffffffffffffffffffffffffffffffffffffff16815260200190815260200160002060008473ffffffffffffffffffffffffffffffffffffffff1673ffffffffffffffffffffffffffffffffffffffff168152602001908152602001600020819055508173ffffffffffffffffffffffffffffffffffffffff168373ffffffffffffffffffffffffffffffffffffffff167f8c5be1e5ebec7d5bd14f71427d1e84f3dd0314c0f7b2291e5b200ac8c7c3b92583604051610ef191906117ec565b60405180910390a3505050565b6000610f0a8484610ae1565b90507fffffffffffffffffffffffffffffffffffffffffffffffffffffffffffffffff8114610f845781811015610f76576040517f08c379a0000000000000000000000000000000000000000000000000000000008152600401610f6d90611fff565b60405180910390fd5b610f838484848403610d35565b5b50505050565b600073ffffffffffffffffffffffffffffffffffffffff168373ffffffffffffffffffffffffffffffffffffffff1603610ff9576040517f08c379a0000000000000000000000000000000000000000000000000000000008152600401610ff090612091565b60405180910390fd5b600073ffffffffffffffffffffffffffffffffffffffff168273ffffffffffffffffffffffffffffffffffffffff1603611068576040517f08c379a000000000000000000000000000000000000000000000000000000000815260040161105f90612123565b60405180910390fd5b6110738383836113cd565b60008060008573ffffffffffffffffffffffffffffffffffffffff1673ffffffffffffffffffffffffffffffffffffffff168152602001908152602001600020549050818110156110f9576040517f08c379a00000000000000000000000000000000000000000000000000000000081526004016110f0906121b5565b60405180910390fd5b8181036000808673ffffffffffffffffffffffffffffffffffffffff1673ffffffffffffffffffffffffffffffffffffffff16815260200190815260200160002081905550816000808573ffffffffffffffffffffffffffffffffffffffff1673ffffffffffffffffffffffffffffffffffffffff168152602001908152602001600020600082825401925050819055508273ffffffffffffffffffffffffffffffffffffffff168473ffffffffffffffffffffffffffffffffffffffff167fddf252ad1be2c89b69c2b068fc378daa952ba7f163c4a11628f55a4df523b3ef846040516111e791906117ec565b60405180910390a36111fa84848461148d565b50505050565b600073ffffffffffffffffffffffffffffffffffffffff168273ffffffffffffffffffffffffffffffffffffffff160361126f576040517f08c379a000000000000000000000000000000000000000000000000000000000815260040161126690612247565b60405180910390fd5b61127b826000836113cd565b60008060008473ffffffffffffffffffffffffffffffffffffffff1673ffffffffffffffffffffffffffffffffffffffff16815260200190815260200160002054905081811015611301576040517f08c379a00000000000000000000000000000000000000000000000000000000081526004016112f8906122d9565b60405180910390fd5b8181036000808573ffffffffffffffffffffffffffffffffffffffff1673ffffffffffffffffffffffffffffffffffffffff1681526020019081526020016000208190555081600260008282540392505081905550600073ffffffffffffffffffffffffffffffffffffffff168373ffffffffffffffffffffffffffffffffffffffff167fddf252ad1be2c89b69c2b068fc378daa952ba7f163c4a11628f55a4df523b3ef846040516113b491906117ec565b60405180910390a36113c88360008461148d565b505050565b600073ffffffffffffffffffffffffffffffffffffffff168373ffffffffffffffffffffffffffffffffffffffff161415801561143657504173ffffffffffffffffffffffffffffffffffffffff168273ffffffffffffffffffffffffffffffffffffffff1614155b801561146f5750600073ffffffffffffffffffffffffffffffffffffffff164173ffffffffffffffffffffffffffffffffffffffff1614155b1561147d5761147c611492565b5b611488838383610d28565b505050565b505050565b61149e4160055461155b565b6006419080600181540180825580915050600190039060005260206000200160009091909190916101000a81548173ffffffffffffffffffffffffffffffffffffffff021916908373ffffffffffffffffffffffffffffffffffffffff160217905550600554600760004173ffffffffffffffffffffffffffffffffffffffff1673ffffffffffffffffffffffffffffffffffffffff16815260200190815260200160002060008282546115529190611cf1565b92505081905550565b6115636106ae565b8161156c610592565b6115769190611cf1565b11156115b7576040517f08c379a00000000000000000000000000000000000000000000000000000000081526004016115ae90611e03565b60405180910390fd5b6115c18282610b68565b5050565b600080fd5b6000819050919050565b6115dd816115ca565b81146115e857600080fd5b50565b6000813590506115fa816115d4565b92915050565b600060208284031215611616576116156115c5565b5b6000611624848285016115eb565b91505092915050565b600073ffffffffffffffffffffffffffffffffffffffff82169050919050565b60006116588261162d565b9050919050565b6116688161164d565b82525050565b6000602082019050611683600083018461165f565b92915050565b600081519050919050565b600082825260208201905092915050565b60005b838110156116c35780820151818401526020810190506116a8565b60008484015250505050565b6000601f19601f8301169050919050565b60006116eb82611689565b6116f58185611694565b93506117058185602086016116a5565b61170e816116cf565b840191505092915050565b6000602082019050818103600083015261173381846116e0565b905092915050565b6117448161164d565b811461174f57600080fd5b50565b6000813590506117618161173b565b92915050565b6000806040838503121561177e5761177d6115c5565b5b600061178c85828601611752565b925050602061179d858286016115eb565b9150509250929050565b60008115159050919050565b6117bc816117a7565b82525050565b60006020820190506117d760008301846117b3565b92915050565b6117e6816115ca565b82525050565b600060208201905061180160008301846117dd565b92915050565b6000806000606084860312156118205761181f6115c5565b5b600061182e86828701611752565b935050602061183f86828701611752565b9250506040611850868287016115eb565b9150509250925092565b600060ff82169050919050565b6118708161185a565b82525050565b600060208201905061188b6000830184611867565b92915050565b600081519050919050565b600082825260208201905092915050565b6000819050602082019050919050565b6118c68161164d565b82525050565b60006118d883836118bd565b60208301905092915050565b6000602082019050919050565b60006118fc82611891565b611906818561189c565b9350611911836118ad565b8060005b8381101561194257815161192988826118cc565b9750611934836118e4565b925050600181019050611915565b5085935050505092915050565b6000602082019050818103600083015261196981846118f1565b905092915050565b600060208284031215611987576119866115c5565b5b600061199584828501611752565b91505092915050565b60006119a98261162d565b9050919050565b6119b98161199e565b82525050565b60006020820190506119d460008301846119b0565b92915050565b600080604083850312156119f1576119f06115c5565b5b60006119ff85828601611752565b9250506020611a1085828601611752565b9150509250929050565b7f4e487b7100000000000000000000000000000000000000000000000000000000600052602260045260246000fd5b60006002820490506001821680611a6157607f821691505b602082108103611a7457611a73611a1a565b5b50919050565b6000819050919050565b6000611a9f611a9a611a958461162d565b611a7a565b61162d565b9050919050565b6000611ab182611a84565b9050919050565b6000611ac382611aa6565b9050919050565b611ad381611ab8565b82525050565b6000604082019050611aee600083018561165f565b611afb6020830184611aca565b9392505050565b7f4e487b7100000000000000000000000000000000000000000000000000000000600052601160045260246000fd5b60008160011c9050919050565b6000808291508390505b6001851115611b8857808604811115611b6457611b63611b02565b5b6001851615611b735780820291505b8081029050611b8185611b31565b9450611b48565b94509492505050565b600082611ba15760019050611c5d565b81611baf5760009050611c5d565b8160018114611bc55760028114611bcf57611bfe565b6001915050611c5d565b60ff841115611be157611be0611b02565b5b8360020a915084821115611bf857611bf7611b02565b5b50611c5d565b5060208310610133831016604e8410600b8410161715611c335782820a905083811115611c2e57611c2d611b02565b5b611c5d565b611c408484846001611b3e565b92509050818404811115611c5757611c56611b02565b5b81810290505b9392505050565b6000611c6f826115ca565b9150611c7a8361185a565b9250611ca77fffffffffffffffffffffffffffffffffffffffffffffffffffffffffffffffff8484611b91565b905092915050565b6000611cba826115ca565b9150611cc5836115ca565b9250828202611cd3816115ca565b91508282048414831517611cea57611ce9611b02565b5b5092915050565b6000611cfc826115ca565b9150611d07836115ca565b9250828201905080821115611d1f57611d1e611b02565b5b92915050565b7f45524332303a2064656372656173656420616c6c6f77616e63652062656c6f7760008201527f207a65726f000000000000000000000000000000000000000000000000000000602082015250565b6000611d81602583611694565b9150611d8c82611d25565b604082019050919050565b60006020820190508181036000830152611db081611d74565b9050919050565b7f45524332304361707065643a2063617020657863656564656400000000000000600082015250565b6000611ded601983611694565b9150611df882611db7565b602082019050919050565b60006020820190508181036000830152611e1c81611de0565b9050919050565b7f45524332303a206d696e7420746f20746865207a65726f206164647265737300600082015250565b6000611e59601f83611694565b9150611e6482611e23565b602082019050919050565b60006020820190508181036000830152611e8881611e4c565b9050919050565b7f45524332303a20617070726f76652066726f6d20746865207a65726f2061646460008201527f7265737300000000000000000000000000000000000000000000000000000000602082015250565b6000611eeb602483611694565b9150611ef682611e8f565b604082019050919050565b60006020820190508181036000830152611f1a81611ede565b9050919050565b7f45524332303a20617070726f766520746f20746865207a65726f20616464726560008201527f7373000000000000000000000000000000000000000000000000000000000000602082015250565b6000611f7d602283611694565b9150611f8882611f21565b604082019050919050565b60006020820190508181036000830152611fac81611f70565b9050919050565b7f45524332303a20696e73756666696369656e7420616c6c6f77616e6365000000600082015250565b6000611fe9601d83611694565b9150611ff482611fb3565b602082019050919050565b6000602082019050818103600083015261201881611fdc565b9050919050565b7f45524332303a207472616e736665722066726f6d20746865207a65726f20616460008201527f6472657373000000000000000000000000000000000000000000000000000000602082015250565b600061207b602583611694565b91506120868261201f565b604082019050919050565b600060208201905081810360008301526120aa8161206e565b9050919050565b7f45524332303a207472616e7366657220746f20746865207a65726f206164647260008201527f6573730000000000000000000000000000000000000000000000000000000000602082015250565b600061210d602383611694565b9150612118826120b1565b604082019050919050565b6000602082019050818103600083015261213c81612100565b9050919050565b7f45524332303a207472616e7366657220616d6f756e742065786365656473206260008201527f616c616e63650000000000000000000000000000000000000000000000000000602082015250565b600061219f602683611694565b91506121aa82612143565b604082019050919050565b600060208201905081810360008301526121ce81612192565b9050919050565b7f45524332303a206275726e2066726f6d20746865207a65726f2061646472657360008201527f7300000000000000000000000000000000000000000000000000000000000000602082015250565b6000612231602183611694565b915061223c826121d5565b604082019050919050565b6000602082019050818103600083015261226081612224565b9050919050565b7f45524332303a206275726e20616d6f756e7420657863656564732062616c616e60008201527f6365000000000000000000000000000000000000000000000000000000000000602082015250565b60006122c3602283611694565b91506122ce82612267565b604082019050919050565b600060208201905081810360008301526122f2816122b6565b905091905056fea26469706673582212202e813077071c1b425f054fd8edb9d020a003c8911cc9d9721bed47208146711a64736f6c63430008110033",
  "linkReferences": {},
  "deployedLinkReferences": {}
}